{
  "transactions": [
    {
      "hash": "0x81c7fdb47b9917679769ce2fc1c00927f1c5cf9a51aa930e0dd0515cc7d3c1e6",
      "transactionType": "CALL",
      "contractName": null,
      "contractAddress": "0x7a042d3e3054563389c13bdaae132c1c6cc472f8",
      "function": "checkResolutionTime()",
      "arguments": [],
      "transaction": {
        "from": "0xa85926f9598aa43a2d8f24246b5e7886c4a5feec",
        "to": "0x7a042d3e3054563389c13bdaae132c1c6cc472f8",
        "gas": "0x9a94",
        "value": "0x0",
        "input": "0x65b1e324",
        "nonce": "0xc5",
        "chainId": "0xaa36a7"
      },
      "additionalContracts": [],
      "isFixedGasLimit": false
    },
    {
      "hash": "0xdc2a373b6fbbac30ff35cb9584a8dd5825ebfc469985a5cd79a7307811ab4884",
      "transactionType": "CALL",
      "contractName": null,
      "contractAddress": "0x7a042d3e3054563389c13bdaae132c1c6cc472f8",
      "function": "resolve(uint8,string)",
      "arguments": [
        "1",
        "https://github.com/"
      ],
      "transaction": {
        "from": "0xa85926f9598aa43a2d8f24246b5e7886c4a5feec",
        "to": "0x7a042d3e3054563389c13bdaae132c1c6cc472f8",
        "gas": "0x4744b",
        "value": "0x0",
        "input": "0x2ecb3c3400000000000000000000000000000000000000000000000000000000000000010000000000000000000000000000000000000000000000000000000000000040000000000000000000000000000000000000000000000000000000000000001368747470733a2f2f6769746875622e636f6d2f00000000000000000000000000",
        "nonce": "0xc6",
        "chainId": "0xaa36a7"
      },
      "additionalContracts": [],
      "isFixedGasLimit": false
    }
  ],
  "receipts": [
    {
      "status": "0x1",
      "cumulativeGasUsed": "0x1ff2d39",
      "logs": [],
      "logsBloom": "0x00000000000000000000000000000000000000000000000000000000000000000000000000000000000000000000000000000000000000000000000000000000000000000000000000000000000000000000000000000000000000000000000000000000000000000000000000000000000000000000000000000000000000000000000000000000000000000000000000000000000000000000000000000000000000000000000000000000000000000000000000000000000000000000000000000000000000000000000000000000000000000000000000000000000000000000000000000000000000000000000000000000000000000000000000000000",
      "type": "0x2",
      "transactionHash": "0x81c7fdb47b9917679769ce2fc1c00927f1c5cf9a51aa930e0dd0515cc7d3c1e6",
      "transactionIndex": "0x69",
      "blockHash": "0xd4a2371da7dd758a45c80fb5c35ee08955d90f34e6a9726eb20516240a57513d",
      "blockNumber": "0x9d4486",
      "gasUsed": "0x69b2",
      "effectiveGasPrice": "0x1b7763",
      "from": "0xa85926f9598aa43a2d8f24246b5e7886c4a5feec",
      "to": "0x7a042d3e3054563389c13bdaae132c1c6cc472f8",
      "contractAddress": null
    },
    {
      "status": "0x1",
      "cumulativeGasUsed": "0x20266c7",
      "logs": [
        {
          "address": "0x779877a7b0d9e8603169ddbd7836e478b4624789",
          "topics": [
            "0x8c5be1e5ebec7d5bd14f71427d1e84f3dd0314c0f7b2291e5b200ac8c7c3b925",
            "0x0000000000000000000000007c7fe235fc63509969e329e5d660e073eefa5d39",
            "0x0000000000000000000000000bf3de8c5d3e8a2b34d2beeb17abfcebaf363a59"
          ],
          "data": "0x00000000000000000000000000000000000000000000000000cddd88f2d52d10",
          "blockHash": "0xd4a2371da7dd758a45c80fb5c35ee08955d90f34e6a9726eb20516240a57513d",
          "blockNumber": "0x9d4486",
          "blockTimestamp": "0x6999b2e0",
          "transactionHash": "0xdc2a373b6fbbac30ff35cb9584a8dd5825ebfc469985a5cd79a7307811ab4884",
          "transactionIndex": "0x6a",
          "logIndex": "0xf5",
          "removed": false
        },
        {
          "address": "0x779877a7b0d9e8603169ddbd7836e478b4624789",
          "topics": [
            "0xddf252ad1be2c89b69c2b068fc378daa952ba7f163c4a11628f55a4df523b3ef",
            "0x0000000000000000000000007c7fe235fc63509969e329e5d660e073eefa5d39",
            "0x000000000000000000000000bc09627e58989ba8f1eda775e486467d2a00944f"
          ],
          "data": "0x00000000000000000000000000000000000000000000000000cddd88f2d52d10",
          "blockHash": "0xd4a2371da7dd758a45c80fb5c35ee08955d90f34e6a9726eb20516240a57513d",
          "blockNumber": "0x9d4486",
          "blockTimestamp": "0x6999b2e0",
          "transactionHash": "0xdc2a373b6fbbac30ff35cb9584a8dd5825ebfc469985a5cd79a7307811ab4884",
          "transactionIndex": "0x6a",
          "logIndex": "0xf6",
          "removed": false
        },
        {
          "address": "0x779877a7b0d9e8603169ddbd7836e478b4624789",
          "topics": [
            "0x8c5be1e5ebec7d5bd14f71427d1e84f3dd0314c0f7b2291e5b200ac8c7c3b925",
            "0x0000000000000000000000007c7fe235fc63509969e329e5d660e073eefa5d39",
            "0x0000000000000000000000000bf3de8c5d3e8a2b34d2beeb17abfcebaf363a59"
          ],
          "data": "0x0000000000000000000000000000000000000000000000000000000000000000",
          "blockHash": "0xd4a2371da7dd758a45c80fb5c35ee08955d90f34e6a9726eb20516240a57513d",
          "blockNumber": "0x9d4486",
          "blockTimestamp": "0x6999b2e0",
          "transactionHash": "0xdc2a373b6fbbac30ff35cb9584a8dd5825ebfc469985a5cd79a7307811ab4884",
          "transactionIndex": "0x6a",
          "logIndex": "0xf7",
          "removed": false
        },
        {
          "address": "0xbc09627e58989ba8f1eda775e486467d2a00944f",
          "topics": [
            "0xd0c3c799bf9e2639de44391e7f524d229b2b55f5b1ea94b2bf7da42f7243dddd"
          ],
          "data": "0x0000000000000000000000000000000000000000000000000000000000000020000000000000000000000000000000000000000000000000de41ba4fc9d91ad90000000000000000000000007c7fe235fc63509969e329e5d660e073eefa5d39000000000000000000000000015a4e609ed01012ff4b9401a274be84c89052e600000000000000000000000000000000000000000000000000000000000054a600000000000000000000000000000000000000000000000000000000000c350000000000000000000000000000000000000000000000000000000000000000000000000000000000000000000000000000000000000000000000000000000000000000000000000000000000779877a7b0d9e8603169ddbd7836e478b462478900000000000000000000000000000000000000000000000000cddd88f2d52d1000000000000000000000000000000000000000000000000000000000000001a0000000000000000000000000000000000000000000000000000000000000030000000000000000000000000000000000000000000000000000000000000003201a396e1b6fc07d78aa75c60d1aac27efc0619e02ec29247560161b155da1135000000000000000000000000000000000000000000000000000000000000001400000000000000000000000000000000000000000000000000000000000000001000000000000000000000000000000000000000000000000000000000000004000000000000000000000000000000000000000000000000000000000000000e000000000000000000000000000000000000000000000000000000000000000200000000000000000000000000000000000000000000000000000000000000005000000000000000000000000000000000000000000000000000000000000000100000000000000000000000000000000000000000000000000000000000000800000000000000000000000000000000000000000000000000000000000000005000000000000000000000000000000000000000000000000000000000000001368747470733a2f2f6769746875622e636f6d2f0000000000000000000000000000000000000000000000000000000000000000000000000000000000000000000000000000000000000000000000000000000000000000000000000000000000",
          "blockHash": "0xd4a2371da7dd758a45c80fb5c35ee08955d90f34e6a9726eb20516240a57513d",
          "blockNumber": "0x9d4486",
          "blockTimestamp": "0x6999b2e0",
          "transactionHash": "0xdc2a373b6fbbac30ff35cb9584a8dd5825ebfc469985a5cd79a7307811ab4884",
          "transactionIndex": "0x6a",
          "logIndex": "0xf8",
          "removed": false
        },
        {
          "address": "0x7c7fe235fc63509969e329e5d660e073eefa5d39",
          "topics": [
            "0xfcce049c4df5ac3bebecd146bbcc023ade8f46453658fa2d3517dbae4bed1cd9",
            "0x1a396e1b6fc07d78aa75c60d1aac27efc0619e02ec29247560161b155da11350",
            "0x000000000000000000000000000000000000000000000000304611b6affba76a",
            "0x0000000000000000000000000000000000000000000000000000000000000001"
          ],
          "data": "0x",
          "blockHash": "0xd4a2371da7dd758a45c80fb5c35ee08955d90f34e6a9726eb20516240a57513d",
          "blockNumber": "0x9d4486",
          "blockTimestamp": "0x6999b2e0",
          "transactionHash": "0xdc2a373b6fbbac30ff35cb9584a8dd5825ebfc469985a5cd79a7307811ab4884",
          "transactionIndex": "0x6a",
          "logIndex": "0xf9",
          "removed": false
        },
        {
          "address": "0x7a042d3e3054563389c13bdaae132c1c6cc472f8",
          "topics": [
            "0x5e186f09b9c93491f14e277eea7faa5de6a2d4bda75a79af7a3684fbfb42da60"
          ],
          "data": "0x0000000000000000000000000000000000000000000000000000000000000001",
          "blockHash": "0xd4a2371da7dd758a45c80fb5c35ee08955d90f34e6a9726eb20516240a57513d",
          "blockNumber": "0x9d4486",
          "blockTimestamp": "0x6999b2e0",
          "transactionHash": "0xdc2a373b6fbbac30ff35cb9584a8dd5825ebfc469985a5cd79a7307811ab4884",
          "transactionIndex": "0x6a",
          "logIndex": "0xfa",
          "removed": false
        }
      ],
      "logsBloom": "0x0000000408004000000000000000000000000000000000000000000000000800000000000200200000000000000000000000000008000000000000020024000000010000000400004000000800000000000010080004000000000000000000000002000000010000000000000000000000010000000000000000001000002000000c000000000000000000000000800000000000000000000020000000000000020000000000080400400000000000000000000001000000800100000000000040000002000000000000000002000000000000000000000100000000080040000010000000000000800000000000000004000000000000040000000200200000",
      "type": "0x2",
      "transactionHash": "0xdc2a373b6fbbac30ff35cb9584a8dd5825ebfc469985a5cd79a7307811ab4884",
      "transactionIndex": "0x6a",
      "blockHash": "0xd4a2371da7dd758a45c80fb5c35ee08955d90f34e6a9726eb20516240a57513d",
      "blockNumber": "0x9d4486",
      "gasUsed": "0x3398e",
      "effectiveGasPrice": "0x1b7763",
      "from": "0xa85926f9598aa43a2d8f24246b5e7886c4a5feec",
      "to": "0x7a042d3e3054563389c13bdaae132c1c6cc472f8",
      "contractAddress": null
    }
  ],
  "libraries": [],
  "pending": [],
  "returns": {},
  "timestamp": 1771680482536,
  "chain": 11155111,
  "commit": "f0ee09b"
}